:100000000C9472000C9486000C9486000C9486006C
:100010000C9486000C9486000C9486000C94860048
:100020000C9486000C9486000C9486000C94860038
:100030000C9486000C9486000C9486000C94860028
:100040000C9486000C9486000C9486000C94860018
:100050000C9486000C9486000C9486000C94AD00E1
:100060000C9486000C9486000C9486000C948600F8
:100070000C9486000C9486000C9486000C948600E8
:100080000C9486000C9486000C9486000C948600D8
:100090000C9486000C9486000C9486000C948600C8
:1000A0000C9486000C9486000C9486000C948600B8
:1000B0000C9486000C9486000C9486000C948600A8
:1000C0000C9486000C9486000C9486000C94860098
:1000D0000C9486000C9486000C9486000C94860088
:1000E0000C94860011241FBECFEFD1E2DEBFCDBF3E
:1000F00000E00CBF22E0A0E0B2E001C01D92A930F8
:10010000B207E1F70E94F7000C94DB010C940000A9
:100110003FB7F8948091050290910602A0910702E2
:10012000B091080226B5A89B05C02F3F19F0019693
:10013000A11DB11D3FBFBA2FA92F982F8827BC0141
:10014000CD01620F711D811D911D42E0660F771F69
:10015000881F991F4A95D1F708951F920F920FB6E5
:100160000F9211242F933F938F939F93AF93BF933D
:100170008091010290910202A0910302B0910402C9
:100180003091000223E0230F2D3758F50196A11D71
:10019000B11D209300028093010290930202A0936C
:1001A0000302B09304028091050290910602A0918F
:1001B0000702B09108020196A11DB11D80930502AE
:1001C00090930602A0930702B0930802BF91AF91EB
:1001D0009F918F913F912F910F900FBE0F901F9085
:1001E000189526E8230F0296A11DB11DD2CF789451
:1001F00084B5826084BD84B5816084BD85B582602C
:1002000085BD85B5816085BD80916E0081608093DC
:100210006E00109281008091810082608093810045
:100220008091810081608093810080918000816055
:10023000809380008091B10084608093B1008091B0
:10024000B00081608093B0008091910082608093C3
:100250009100809191008160809391008091900045
:100260008160809390008091A10082608093A100C2
:100270008091A10081608093A1008091A0008160A5
:100280008093A00080912101826080932101809160
:100290002101816080932101809120018160809300
:1002A000200180917A00846080937A0080917A00A6
:1002B000826080937A0080917A00816080937A00D6
:1002C00080917A00806880937A001092C1008FEF4D
:1002D00081B984B987B990E0C92E90E0D92E90E019
:1002E00080E0C92FD82F01E010E0F12CE12C312C57
:1002F000212CC130D10539F40330110521F401E07E
:1003000010E0D0E0C0E038B888B1822988B9F2B8EE
:1003100082B18E2982B98C2F8295807F85B985B173
:10032000802B85B90E9488002B013C0188EE882E25
:1003300083E0982EA12CB12C0E94880064197509C5
:1003400086099709683E734081059105A8F321E06D
:10035000821A9108A108B10888EE480E83E0581E61
:10036000611C711C81149104A104B10429F7239428
:100370008AE02812BECF20E1320E80E63812B8CFD4
:10038000E3942AE0E212B3CF80E1F80E20E6F21205
:10039000ADCF0F5F1F4F0A3011050CF4A6CF91E0CF
:1003A00080E0CD2B09F49DCFC114D10409F497CF7F
:0A03B0000E94000094CFF894FFCFE4
:00000001FF
